{
  "abi": [
    {
      "inputs": [
        {
          "internalType": "address",
          "name": "_stakingToken",
          "type": "address"
        },
        {
          "internalType": "address",
          "name": "_rewardToken",
          "type": "address"
        }
      ],
      "stateMutability": "nonpayable",
      "type": "constructor"
    },
    {
      "inputs": [
        {
          "internalType": "address",
          "name": "",
          "type": "address"
        }
      ],
      "name": "balanceOf",
      "outputs": [
        {
          "internalType": "uint256",
          "name": "",
          "type": "uint256"
        }
      ],
      "stateMutability": "view",
      "type": "function"
    },
    {
      "inputs": [],
      "name": "duration",
      "outputs": [
        {
          "internalType": "uint256",
          "name": "",
          "type": "uint256"
        }
      ],
      "stateMutability": "view",
      "type": "function"
    },
    {
      "inputs": [
        {
          "internalType": "address",
          "name": "_account",
          "type": "address"
        }
      ],
      "name": "earned",
      "outputs": [
        {
          "internalType": "uint256",
          "name": "",
          "type": "uint256"
        }
      ],
      "stateMutability": "view",
      "type": "function"
    },
    {
      "inputs": [],
      "name": "finishAt",
      "outputs": [
        {
          "internalType": "uint256",
          "name": "",
          "type": "uint256"
        }
      ],
      "stateMutability": "view",
      "type": "function"
    },
    {
      "inputs": [],
      "name": "getReward",
      "outputs": [],
      "stateMutability": "nonpayable",
      "type": "function"
    },
    {
      "inputs": [],
      "name": "lastTimeRewardApplicable",
      "outputs": [
        {
          "internalType": "uint256",
          "name": "",
          "type": "uint256"
        }
      ],
      "stateMutability": "view",
      "type": "function"
    },
    {
      "inputs": [
        {
          "internalType": "uint256",
          "name": "_amount",
          "type": "uint256"
        }
      ],
      "name": "notifyRewardAmount",
      "outputs": [],
      "stateMutability": "nonpayable",
      "type": "function"
    },
    {
      "inputs": [],
      "name": "owner",
      "outputs": [
        {
          "internalType": "address",
          "name": "",
          "type": "address"
        }
      ],
      "stateMutability": "view",
      "type": "function"
    },
    {
      "inputs": [],
      "name": "rewardPerToken",
      "outputs": [
        {
          "internalType": "uint256",
          "name": "",
          "type": "uint256"
        }
      ],
      "stateMutability": "view",
      "type": "function"
    },
    {
      "inputs": [],
      "name": "rewardPerTokenStored",
      "outputs": [
        {
          "internalType": "uint256",
          "name": "",
          "type": "uint256"
        }
      ],
      "stateMutability": "view",
      "type": "function"
    },
    {
      "inputs": [],
      "name": "rewardRate",
      "outputs": [
        {
          "internalType": "uint256",
          "name": "",
          "type": "uint256"
        }
      ],
      "stateMutability": "view",
      "type": "function"
    },
    {
      "inputs": [
        {
          "internalType": "address",
          "name": "",
          "type": "address"
        }
      ],
      "name": "rewards",
      "outputs": [
        {
          "internalType": "uint256",
          "name": "",
          "type": "uint256"
        }
      ],
      "stateMutability": "view",
      "type": "function"
    },
    {
      "inputs": [],
      "name": "rewardsToken",
      "outputs": [
        {
          "internalType": "contract IERC20",
          "name": "",
          "type": "address"
        }
      ],
      "stateMutability": "view",
      "type": "function"
    },
    {
      "inputs": [
        {
          "internalType": "uint256",
          "name": "_duration",
          "type": "uint256"
        }
      ],
      "name": "setRewardsDuration",
      "outputs": [],
      "stateMutability": "nonpayable",
      "type": "function"
    },
    {
      "inputs": [
        {
          "internalType": "uint256",
          "name": "_amount",
          "type": "uint256"
        }
      ],
      "name": "stake",
      "outputs": [],
      "stateMutability": "nonpayable",
      "type": "function"
    },
    {
      "inputs": [],
      "name": "stakingToken",
      "outputs": [
        {
          "internalType": "contract IERC20",
          "name": "",
          "type": "address"
        }
      ],
      "stateMutability": "view",
      "type": "function"
    },
    {
      "inputs": [],
      "name": "totalSupply",
      "outputs": [
        {
          "internalType": "uint256",
          "name": "",
          "type": "uint256"
        }
      ],
      "stateMutability": "view",
      "type": "function"
    },
    {
      "inputs": [],
      "name": "updatedAt",
      "outputs": [
        {
          "internalType": "uint256",
          "name": "",
          "type": "uint256"
        }
      ],
      "stateMutability": "view",
      "type": "function"
    },
    {
      "inputs": [
        {
          "internalType": "address",
          "name": "",
          "type": "address"
        }
      ],
      "name": "userRewardPerTokenPaid",
      "outputs": [
        {
          "internalType": "uint256",
          "name": "",
          "type": "uint256"
        }
      ],
      "stateMutability": "view",
      "type": "function"
    },
    {
      "inputs": [
        {
          "internalType": "uint256",
          "name": "_amount",
          "type": "uint256"
        }
      ],
      "name": "withdraw",
      "outputs": [],
      "stateMutability": "nonpayable",
      "type": "function"
    }
  ],
  "bytecode": {
    "object": "0x60c060405234801561001057600080fd5b50604051610c87380380610c8783398101604081905261002f91610074565b600080546001600160a01b031916331790556001600160a01b039182166080521660a0526100a7565b80516001600160a01b038116811461006f57600080fd5b919050565b6000806040838503121561008757600080fd5b61009083610058565b915061009e60208401610058565b90509250929050565b60805160a051610b9f6100e8600039600081816102a00152818161061301526107a50152600081816101e60152818161043e01526108a50152610b9f6000f3fe608060405234801561001057600080fd5b506004361061012b5760003560e01c80637519ab50116100ad578063a694fc3a11610071578063a694fc3a1461026d578063cc1a378f14610280578063cd3daf9d14610293578063d1af0c7d1461029b578063df136d65146102c257600080fd5b80637519ab50146102205780637b0a47ee1461022957806380faa57d146102325780638b8763471461023a5780638da5cb5b1461025a57600080fd5b80633c6b16ab116100f45780633c6b16ab1461019d5780633d18b912146101b057806367d3b488146101b857806370a08231146101c157806372f702f3146101e157600080fd5b80628cc262146101305780630700037d146101565780630fb5a6b41461017657806318160ddd1461017f5780632e1a7d4d14610188575b600080fd5b61014361013e366004610a77565b6102cb565b6040519081526020015b60405180910390f35b610143610164366004610a77565b60076020526000908152604090205481565b61014360015481565b61014360085481565b61019b610196366004610aa0565b610348565b005b61019b6101ab366004610aa0565b6104b9565b61019b6106fc565b61014360025481565b6101436101cf366004610a77565b60096020526000908152604090205481565b6102087f000000000000000000000000000000000000000000000000000000000000000081565b6040516001600160a01b03909116815260200161014d565b61014360035481565b61014360045481565b6101436107d8565b610143610248366004610a77565b60066020526000908152604090205481565b600054610208906001600160a01b031681565b61019b61027b366004610aa0565b6107eb565b61019b61028e366004610aa0565b61095c565b6101436109fd565b6102087f000000000000000000000000000000000000000000000000000000000000000081565b61014360055481565b6001600160a01b0381166000908152600760209081526040808320546006909252822054670de0b6b3a7640000906103016109fd565b61030b9190610acf565b6001600160a01b03851660009081526009602052604090205461032e9190610ae2565b6103389190610af9565b6103429190610b1b565b92915050565b336103516109fd565b60055561035c6107d8565b6003556001600160a01b038116156103a357610377816102cb565b6001600160a01b0382166000908152600760209081526040808320939093556005546006909152919020555b600082116103e55760405162461bcd60e51b815260206004820152600a6024820152690616d6f756e74203d20360b41b60448201526064015b60405180910390fd5b3360009081526009602052604081208054849290610404908490610acf565b92505081905550816008600082825461041d9190610acf565b909155505060405163a9059cbb60e01b8152336004820152602481018390527f00000000000000000000000000000000000000000000000000000000000000006001600160a01b03169063a9059cbb906044015b6020604051808303816000875af1158015610490573d6000803e3d6000fd5b505050506040513d601f19601f820116820180604052508101906104b49190610b2e565b505050565b6000546001600160a01b031633146105045760405162461bcd60e51b815260206004820152600e60248201526d1b9bdd08185d5d1a1bdc9a5e995960921b60448201526064016103dc565b600061050e6109fd565b6005556105196107d8565b6003556001600160a01b0381161561056057610534816102cb565b6001600160a01b0382166000908152600760209081526040808320939093556005546006909152919020555b600254421061057e576001546105769083610af9565b6004556105ba565b6000600454426002546105919190610acf565b61059b9190610ae2565b6001549091506105ab8285610b1b565b6105b59190610af9565b600455505b6000600454116105fe5760405162461bcd60e51b815260206004820152600f60248201526e07265776172642072617465203d203608c1b60448201526064016103dc565b6040516370a0823160e01b81523060048201527f00000000000000000000000000000000000000000000000000000000000000006001600160a01b0316906370a0823190602401602060405180830381865afa158015610662573d6000803e3d6000fd5b505050506040513d601f19601f820116820180604052508101906106869190610b50565b6001546004546106969190610ae2565b11156106e45760405162461bcd60e51b815260206004820152601760248201527f72657761726420616d6f756e74203e2062616c616e636500000000000000000060448201526064016103dc565b6001546106f19042610b1b565b600255505042600355565b336107056109fd565b6005556107106107d8565b6003556001600160a01b038116156107575761072b816102cb565b6001600160a01b0382166000908152600760209081526040808320939093556005546006909152919020555b3360009081526007602052604090205480156107d45733600081815260076020526040808220919091555163a9059cbb60e01b81526004810191909152602481018290526001600160a01b037f0000000000000000000000000000000000000000000000000000000000000000169063a9059cbb90604401610471565b5050565b60006107e660025442610a5e565b905090565b336107f46109fd565b6005556107ff6107d8565b6003556001600160a01b038116156108465761081a816102cb565b6001600160a01b0382166000908152600760209081526040808320939093556005546006909152919020555b600082116108835760405162461bcd60e51b815260206004820152600a6024820152690616d6f756e74203d20360b41b60448201526064016103dc565b6040516323b872dd60e01b8152336004820152306024820152604481018390527f00000000000000000000000000000000000000000000000000000000000000006001600160a01b0316906323b872dd906064016020604051808303816000875af11580156108f6573d6000803e3d6000fd5b505050506040513d601f19601f8201168201806040525081019061091a9190610b2e565b50336000908152600960205260408120805484929061093a908490610b1b565b9250508190555081600860008282546109539190610b1b565b90915550505050565b6000546001600160a01b031633146109a75760405162461bcd60e51b815260206004820152600e60248201526d1b9bdd08185d5d1a1bdc9a5e995960921b60448201526064016103dc565b42600254106109f85760405162461bcd60e51b815260206004820152601c60248201527f726577617264206475726174696f6e206e6f742066696e69736865640000000060448201526064016103dc565b600155565b6000600854600003610a10575060055490565b600854600354610a1e6107d8565b610a289190610acf565b600454610a359190610ae2565b610a4790670de0b6b3a7640000610ae2565b610a519190610af9565b6005546107e69190610b1b565b600081831115610a6e5781610a70565b825b9392505050565b600060208284031215610a8957600080fd5b81356001600160a01b0381168114610a7057600080fd5b600060208284031215610ab257600080fd5b5035919050565b634e487b7160e01b600052601160045260246000fd5b8181038181111561034257610342610ab9565b808202811582820484141761034257610342610ab9565b600082610b1657634e487b7160e01b600052601260045260246000fd5b500490565b8082018082111561034257610342610ab9565b600060208284031215610b4057600080fd5b81518015158114610a7057600080fd5b600060208284031215610b6257600080fd5b505191905056fea264697066735822122024a095fcdf23fb00f783b1c3875835b2e59950d48568ea41600818289ed2209064736f6c63430008110033",
    "linkReferences": {}
  },
  "methodIdentifiers": {
    "balanceOf(address)": "70a08231",
    "duration()": "0fb5a6b4",
    "earned(address)": "008cc262",
    "finishAt()": "67d3b488",
    "getReward()": "3d18b912",
    "lastTimeRewardApplicable()": "80faa57d",
    "notifyRewardAmount(uint256)": "3c6b16ab",
    "owner()": "8da5cb5b",
    "rewardPerToken()": "cd3daf9d",
    "rewardPerTokenStored()": "df136d65",
    "rewardRate()": "7b0a47ee",
    "rewards(address)": "0700037d",
    "rewardsToken()": "d1af0c7d",
    "setRewardsDuration(uint256)": "cc1a378f",
    "stake(uint256)": "a694fc3a",
    "stakingToken()": "72f702f3",
    "totalSupply()": "18160ddd",
    "updatedAt()": "7519ab50",
    "userRewardPerTokenPaid(address)": "8b876347",
    "withdraw(uint256)": "2e1a7d4d"
  },
  "id": 10
}