{
  "abi": [
    {
      "inputs": [
        {
          "internalType": "address",
          "name": "_stakingToken",
          "type": "address"
        },
        {
          "internalType": "address",
          "name": "_rewardToken",
          "type": "address"
        },
        {
          "internalType": "address",
          "name": "_cra",
          "type": "address"
        }
      ],
      "stateMutability": "nonpayable",
      "type": "constructor"
    },
    {
      "inputs": [
        {
          "internalType": "address",
          "name": "",
          "type": "address"
        }
      ],
      "name": "balanceOf",
      "outputs": [
        {
          "internalType": "uint256",
          "name": "",
          "type": "uint256"
        }
      ],
      "stateMutability": "view",
      "type": "function"
    },
    {
      "inputs": [],
      "name": "duration",
      "outputs": [
        {
          "internalType": "uint256",
          "name": "",
          "type": "uint256"
        }
      ],
      "stateMutability": "view",
      "type": "function"
    },
    {
      "inputs": [
        {
          "internalType": "address",
          "name": "_account",
          "type": "address"
        }
      ],
      "name": "earned",
      "outputs": [
        {
          "internalType": "uint256",
          "name": "",
          "type": "uint256"
        }
      ],
      "stateMutability": "view",
      "type": "function"
    },
    {
      "inputs": [],
      "name": "finishAt",
      "outputs": [
        {
          "internalType": "uint256",
          "name": "",
          "type": "uint256"
        }
      ],
      "stateMutability": "view",
      "type": "function"
    },
    {
      "inputs": [],
      "name": "getCRA",
      "outputs": [
        {
          "internalType": "address",
          "name": "",
          "type": "address"
        }
      ],
      "stateMutability": "view",
      "type": "function"
    },
    {
      "inputs": [
        {
          "components": [
            {
              "internalType": "uint256",
              "name": "expireAt",
              "type": "uint256"
            },
            {
              "internalType": "bytes",
              "name": "signature",
              "type": "bytes"
            }
          ],
          "internalType": "struct ICounterPartyRiskAttestation.craParams",
          "name": "_params",
          "type": "tuple"
        }
      ],
      "name": "getReward",
      "outputs": [],
      "stateMutability": "nonpayable",
      "type": "function"
    },
    {
      "inputs": [],
      "name": "lastTimeRewardApplicable",
      "outputs": [
        {
          "internalType": "uint256",
          "name": "",
          "type": "uint256"
        }
      ],
      "stateMutability": "view",
      "type": "function"
    },
    {
      "inputs": [
        {
          "internalType": "uint256",
          "name": "_amount",
          "type": "uint256"
        }
      ],
      "name": "notifyRewardAmount",
      "outputs": [],
      "stateMutability": "nonpayable",
      "type": "function"
    },
    {
      "inputs": [],
      "name": "owner",
      "outputs": [
        {
          "internalType": "address",
          "name": "",
          "type": "address"
        }
      ],
      "stateMutability": "view",
      "type": "function"
    },
    {
      "inputs": [],
      "name": "rewardPerToken",
      "outputs": [
        {
          "internalType": "uint256",
          "name": "",
          "type": "uint256"
        }
      ],
      "stateMutability": "view",
      "type": "function"
    },
    {
      "inputs": [],
      "name": "rewardPerTokenStored",
      "outputs": [
        {
          "internalType": "uint256",
          "name": "",
          "type": "uint256"
        }
      ],
      "stateMutability": "view",
      "type": "function"
    },
    {
      "inputs": [],
      "name": "rewardRate",
      "outputs": [
        {
          "internalType": "uint256",
          "name": "",
          "type": "uint256"
        }
      ],
      "stateMutability": "view",
      "type": "function"
    },
    {
      "inputs": [
        {
          "internalType": "address",
          "name": "",
          "type": "address"
        }
      ],
      "name": "rewards",
      "outputs": [
        {
          "internalType": "uint256",
          "name": "",
          "type": "uint256"
        }
      ],
      "stateMutability": "view",
      "type": "function"
    },
    {
      "inputs": [],
      "name": "rewardsToken",
      "outputs": [
        {
          "internalType": "contract IERC20",
          "name": "",
          "type": "address"
        }
      ],
      "stateMutability": "view",
      "type": "function"
    },
    {
      "inputs": [
        {
          "internalType": "address",
          "name": "_cra",
          "type": "address"
        }
      ],
      "name": "setCRA",
      "outputs": [],
      "stateMutability": "nonpayable",
      "type": "function"
    },
    {
      "inputs": [
        {
          "internalType": "uint256",
          "name": "_duration",
          "type": "uint256"
        }
      ],
      "name": "setRewardsDuration",
      "outputs": [],
      "stateMutability": "nonpayable",
      "type": "function"
    },
    {
      "inputs": [
        {
          "internalType": "uint256",
          "name": "_amount",
          "type": "uint256"
        },
        {
          "components": [
            {
              "internalType": "uint256",
              "name": "expireAt",
              "type": "uint256"
            },
            {
              "internalType": "bytes",
              "name": "signature",
              "type": "bytes"
            }
          ],
          "internalType": "struct ICounterPartyRiskAttestation.craParams",
          "name": "_params",
          "type": "tuple"
        }
      ],
      "name": "stake",
      "outputs": [],
      "stateMutability": "nonpayable",
      "type": "function"
    },
    {
      "inputs": [],
      "name": "stakingToken",
      "outputs": [
        {
          "internalType": "contract IERC20",
          "name": "",
          "type": "address"
        }
      ],
      "stateMutability": "view",
      "type": "function"
    },
    {
      "inputs": [],
      "name": "totalSupply",
      "outputs": [
        {
          "internalType": "uint256",
          "name": "",
          "type": "uint256"
        }
      ],
      "stateMutability": "view",
      "type": "function"
    },
    {
      "inputs": [],
      "name": "updatedAt",
      "outputs": [
        {
          "internalType": "uint256",
          "name": "",
          "type": "uint256"
        }
      ],
      "stateMutability": "view",
      "type": "function"
    },
    {
      "inputs": [
        {
          "internalType": "address",
          "name": "",
          "type": "address"
        }
      ],
      "name": "userRewardPerTokenPaid",
      "outputs": [
        {
          "internalType": "uint256",
          "name": "",
          "type": "uint256"
        }
      ],
      "stateMutability": "view",
      "type": "function"
    },
    {
      "inputs": [
        {
          "internalType": "uint256",
          "name": "_amount",
          "type": "uint256"
        },
        {
          "components": [
            {
              "internalType": "uint256",
              "name": "expireAt",
              "type": "uint256"
            },
            {
              "internalType": "bytes",
              "name": "signature",
              "type": "bytes"
            }
          ],
          "internalType": "struct ICounterPartyRiskAttestation.craParams",
          "name": "_params",
          "type": "tuple"
        }
      ],
      "name": "withdraw",
      "outputs": [],
      "stateMutability": "nonpayable",
      "type": "function"
    }
  ],
  "bytecode": {
    "object": "0x60c060405234801561001057600080fd5b5060405161115238038061115283398101604081905261002f91610086565b600080546001600160a01b031990811633179091556001600160a01b0393841660805291831660a052600a80549190931691161790556100c9565b80516001600160a01b038116811461008157600080fd5b919050565b60008060006060848603121561009b57600080fd5b6100a48461006a565b92506100b26020850161006a565b91506100c06040850161006a565b90509250925092565b60805160a05161104861010a600039600081816102cb015281816105090152610ad30152600081816101e1015281816107ee0152610c8301526110486000f3fe608060405234801561001057600080fd5b50600436106101415760003560e01c80638b876347116100b8578063cd3daf9d1161007c578063cd3daf9d146102be578063d1af0c7d146102c6578063d69aa9a7146102ed578063dda950c714610300578063df136d6514610313578063ebe1258b1461031c57600080fd5b80638b876347146102355780638da5cb5b14610255578063a84726c714610268578063b10e46a21461027b578063cc1a378f146102ab57600080fd5b806367d3b4881161010a57806367d3b488146101b357806370a08231146101bc57806372f702f3146101dc5780637519ab501461021b5780637b0a47ee1461022457806380faa57d1461022d57600080fd5b80628cc262146101465780630700037d1461016c5780630fb5a6b41461018c57806318160ddd146101955780633c6b16ab1461019e575b600080fd5b610159610154366004610d57565b61032d565b6040519081526020015b60405180910390f35b61015961017a366004610d57565b60076020526000908152604090205481565b61015960015481565b61015960085481565b6101b16101ac366004610d80565b6103aa565b005b61015960025481565b6101596101ca366004610d57565b60096020526000908152604090205481565b6102037f000000000000000000000000000000000000000000000000000000000000000081565b6040516001600160a01b039091168152602001610163565b61015960035481565b61015960045481565b6101596105f2565b610159610243366004610d57565b60066020526000908152604090205481565b600054610203906001600160a01b031681565b6101b1610276366004610db1565b610605565b6101b1610289366004610d57565b600a80546001600160a01b0319166001600160a01b0392909216919091179055565b6101b16102b9366004610d80565b61086b565b61015961090c565b6102037f000000000000000000000000000000000000000000000000000000000000000081565b6101b16102fb366004610df8565b61096d565b6101b161030e366004610db1565b610b09565b61015960055481565b600a546001600160a01b0316610203565b6001600160a01b0381166000908152600760209081526040808320546006909252822054670de0b6b3a76400009061036361090c565b61036d9190610e4b565b6001600160a01b0385166000908152600960205260409020546103909190610e5e565b61039a9190610e75565b6103a49190610e97565b92915050565b6000546001600160a01b031633146103fa5760405162461bcd60e51b815260206004820152600e60248201526d1b9bdd08185d5d1a1bdc9a5e995960921b60448201526064015b60405180910390fd5b600061040461090c565b60055561040f6105f2565b6003556001600160a01b038116156104565761042a8161032d565b6001600160a01b0382166000908152600760209081526040808320939093556005546006909152919020555b60025442106104745760015461046c9083610e75565b6004556104b0565b6000600454426002546104879190610e4b565b6104919190610e5e565b6001549091506104a18285610e97565b6104ab9190610e75565b600455505b6000600454116104f45760405162461bcd60e51b815260206004820152600f60248201526e07265776172642072617465203d203608c1b60448201526064016103f1565b6040516370a0823160e01b81523060048201527f00000000000000000000000000000000000000000000000000000000000000006001600160a01b0316906370a0823190602401602060405180830381865afa158015610558573d6000803e3d6000fd5b505050506040513d601f19601f8201168201806040525081019061057c9190610eaa565b60015460045461058c9190610e5e565b11156105da5760405162461bcd60e51b815260206004820152601760248201527f72657761726420616d6f756e74203e2062616c616e636500000000000000000060448201526064016103f1565b6001546105e79042610e97565b600255505042600355565b600061060060025442610d3e565b905090565b3361060e61090c565b6005556106196105f2565b6003556001600160a01b03811615610660576106348161032d565b6001600160a01b0382166000908152600760209081526040808320939093556005546006909152919020555b6000831161069d5760405162461bcd60e51b815260206004820152600a6024820152690616d6f756e74203d20360b41b60448201526064016103f1565b6040805160c081018252308082526020820152339181019190915260009060608101600546146106eb5760405180604001604052806006815260200165574d4154494360d01b815250610709565b604051806040016040528060048152602001630ae8aa8960e31b8152505b815260208082018790528535604090920191909152600a549192506001600160a01b0390911690631d23ead190839061074490870187610ec3565b6040518463ffffffff1660e01b815260040161076293929190610f3a565b600060405180830381600087803b15801561077c57600080fd5b505af1158015610790573d6000803e3d6000fd5b505033600090815260096020526040812080548894509092506107b4908490610e4b565b9250508190555083600860008282546107cd9190610e4b565b909155505060405163a9059cbb60e01b8152336004820152602481018590527f00000000000000000000000000000000000000000000000000000000000000006001600160a01b03169063a9059cbb906044015b6020604051808303816000875af1158015610840573d6000803e3d6000fd5b505050506040513d601f19601f820116820180604052508101906108649190610ff0565b5050505050565b6000546001600160a01b031633146108b65760405162461bcd60e51b815260206004820152600e60248201526d1b9bdd08185d5d1a1bdc9a5e995960921b60448201526064016103f1565b42600254106109075760405162461bcd60e51b815260206004820152601c60248201527f726577617264206475726174696f6e206e6f742066696e69736865640000000060448201526064016103f1565b600155565b600060085460000361091f575060055490565b60085460035461092d6105f2565b6109379190610e4b565b6004546109449190610e5e565b61095690670de0b6b3a7640000610e5e565b6109609190610e75565b6005546106009190610e97565b3361097661090c565b6005556109816105f2565b6003556001600160a01b038116156109c85761099c8161032d565b6001600160a01b0382166000908152600760209081526040808320939093556005546006909152919020555b336000908152600760205260409020548015610b04576040805160c08101825230808252602080830191909152338284015282518084019093526004835263135554d160e21b83820152606082019290925260808101839052843560a0820152600a5490916001600160a01b0390911690631d23ead1908390610a4d90880188610ec3565b6040518463ffffffff1660e01b8152600401610a6b93929190610f3a565b600060405180830381600087803b158015610a8557600080fd5b505af1158015610a99573d6000803e3d6000fd5b505033600081815260076020526040808220919091555163a9059cbb60e01b81526004810191909152602481018590526001600160a01b037f000000000000000000000000000000000000000000000000000000000000000016925063a9059cbb9150604401610821565b505050565b33610b1261090c565b600555610b1d6105f2565b6003556001600160a01b03811615610b6457610b388161032d565b6001600160a01b0382166000908152600760209081526040808320939093556005546006909152919020555b60008311610ba15760405162461bcd60e51b815260206004820152600a6024820152690616d6f756e74203d20360b41b60448201526064016103f1565b6040805160c081018252308082523360208084019190915282840191909152825180840190935260048352630ae8aa8960e31b83820152606082019290925260808101859052833560a0820152600a5490916001600160a01b0390911690631d23ead1908390610c1390870187610ec3565b6040518463ffffffff1660e01b8152600401610c3193929190610f3a565b600060405180830381600087803b158015610c4b57600080fd5b505af1158015610c5f573d6000803e3d6000fd5b50506040516323b872dd60e01b8152336004820152306024820152604481018790527f00000000000000000000000000000000000000000000000000000000000000006001600160a01b031692506323b872dd91506064016020604051808303816000875af1158015610cd6573d6000803e3d6000fd5b505050506040513d601f19601f82011682018060405250810190610cfa9190610ff0565b503360009081526009602052604081208054869290610d1a908490610e97565b925050819055508360086000828254610d339190610e97565b909155505050505050565b600081831115610d4e5781610d50565b825b9392505050565b600060208284031215610d6957600080fd5b81356001600160a01b0381168114610d5057600080fd5b600060208284031215610d9257600080fd5b5035919050565b600060408284031215610dab57600080fd5b50919050565b60008060408385031215610dc457600080fd5b82359150602083013567ffffffffffffffff811115610de257600080fd5b610dee85828601610d99565b9150509250929050565b600060208284031215610e0a57600080fd5b813567ffffffffffffffff811115610e2157600080fd5b610e2d84828501610d99565b949350505050565b634e487b7160e01b600052601160045260246000fd5b818103818111156103a4576103a4610e35565b80820281158282048414176103a4576103a4610e35565b600082610e9257634e487b7160e01b600052601260045260246000fd5b500490565b808201808211156103a4576103a4610e35565b600060208284031215610ebc57600080fd5b5051919050565b6000808335601e19843603018112610eda57600080fd5b83018035915067ffffffffffffffff821115610ef557600080fd5b602001915036819003821315610f0a57600080fd5b9250929050565b81835281816020850137506000828201602090810191909152601f909101601f19169091010190565b60408152600060018060a01b03808651166040840152602081818801511660608501528160408801511660808501526060870151915060c060a085015281518061010086015260005b81811015610fa05783810183015186820161012001528201610f83565b5061012092506000838287010152601f19601f82011685019050608088015160c086015260a088015160e0860152828582030182860152610fe48382018789610f11565b98975050505050505050565b60006020828403121561100257600080fd5b81518015158114610d5057600080fdfea2646970667358221220337d77b576e26e52ad64062c5adb76f11aef78ce30266748f90b3b465a88338964736f6c63430008110033",
    "linkReferences": {}
  },
  "methodIdentifiers": {
    "balanceOf(address)": "70a08231",
    "duration()": "0fb5a6b4",
    "earned(address)": "008cc262",
    "finishAt()": "67d3b488",
    "getCRA()": "ebe1258b",
    "getReward((uint256,bytes))": "d69aa9a7",
    "lastTimeRewardApplicable()": "80faa57d",
    "notifyRewardAmount(uint256)": "3c6b16ab",
    "owner()": "8da5cb5b",
    "rewardPerToken()": "cd3daf9d",
    "rewardPerTokenStored()": "df136d65",
    "rewardRate()": "7b0a47ee",
    "rewards(address)": "0700037d",
    "rewardsToken()": "d1af0c7d",
    "setCRA(address)": "b10e46a2",
    "setRewardsDuration(uint256)": "cc1a378f",
    "stake(uint256,(uint256,bytes))": "dda950c7",
    "stakingToken()": "72f702f3",
    "totalSupply()": "18160ddd",
    "updatedAt()": "7519ab50",
    "userRewardPerTokenPaid(address)": "8b876347",
    "withdraw(uint256,(uint256,bytes))": "a84726c7"
  },
  "id": 1
}