{
  "abi": [
    {
      "inputs": [
        {
          "internalType": "address",
          "name": "_stakingToken",
          "type": "address"
        },
        {
          "internalType": "address",
          "name": "_rewardToken",
          "type": "address"
        },
        {
          "internalType": "address",
          "name": "_cra",
          "type": "address"
        }
      ],
      "stateMutability": "nonpayable",
      "type": "constructor"
    },
    {
      "inputs": [
        {
          "internalType": "address",
          "name": "",
          "type": "address"
        }
      ],
      "name": "balanceOf",
      "outputs": [
        {
          "internalType": "uint256",
          "name": "",
          "type": "uint256"
        }
      ],
      "stateMutability": "view",
      "type": "function"
    },
    {
      "inputs": [],
      "name": "duration",
      "outputs": [
        {
          "internalType": "uint256",
          "name": "",
          "type": "uint256"
        }
      ],
      "stateMutability": "view",
      "type": "function"
    },
    {
      "inputs": [
        {
          "internalType": "address",
          "name": "_account",
          "type": "address"
        }
      ],
      "name": "earned",
      "outputs": [
        {
          "internalType": "uint256",
          "name": "",
          "type": "uint256"
        }
      ],
      "stateMutability": "view",
      "type": "function"
    },
    {
      "inputs": [],
      "name": "finishAt",
      "outputs": [
        {
          "internalType": "uint256",
          "name": "",
          "type": "uint256"
        }
      ],
      "stateMutability": "view",
      "type": "function"
    },
    {
      "inputs": [
        {
          "components": [
            {
              "internalType": "uint256",
              "name": "expireAt",
              "type": "uint256"
            },
            {
              "internalType": "bytes",
              "name": "signature",
              "type": "bytes"
            }
          ],
          "internalType": "struct ICounterPartyRiskAttestation.craParams",
          "name": "_params",
          "type": "tuple"
        }
      ],
      "name": "getReward",
      "outputs": [],
      "stateMutability": "nonpayable",
      "type": "function"
    },
    {
      "inputs": [],
      "name": "lastTimeRewardApplicable",
      "outputs": [
        {
          "internalType": "uint256",
          "name": "",
          "type": "uint256"
        }
      ],
      "stateMutability": "view",
      "type": "function"
    },
    {
      "inputs": [
        {
          "internalType": "uint256",
          "name": "_amount",
          "type": "uint256"
        }
      ],
      "name": "notifyRewardAmount",
      "outputs": [],
      "stateMutability": "nonpayable",
      "type": "function"
    },
    {
      "inputs": [],
      "name": "owner",
      "outputs": [
        {
          "internalType": "address",
          "name": "",
          "type": "address"
        }
      ],
      "stateMutability": "view",
      "type": "function"
    },
    {
      "inputs": [],
      "name": "rewardPerToken",
      "outputs": [
        {
          "internalType": "uint256",
          "name": "",
          "type": "uint256"
        }
      ],
      "stateMutability": "view",
      "type": "function"
    },
    {
      "inputs": [],
      "name": "rewardPerTokenStored",
      "outputs": [
        {
          "internalType": "uint256",
          "name": "",
          "type": "uint256"
        }
      ],
      "stateMutability": "view",
      "type": "function"
    },
    {
      "inputs": [],
      "name": "rewardRate",
      "outputs": [
        {
          "internalType": "uint256",
          "name": "",
          "type": "uint256"
        }
      ],
      "stateMutability": "view",
      "type": "function"
    },
    {
      "inputs": [
        {
          "internalType": "address",
          "name": "",
          "type": "address"
        }
      ],
      "name": "rewards",
      "outputs": [
        {
          "internalType": "uint256",
          "name": "",
          "type": "uint256"
        }
      ],
      "stateMutability": "view",
      "type": "function"
    },
    {
      "inputs": [],
      "name": "rewardsToken",
      "outputs": [
        {
          "internalType": "contract IERC20",
          "name": "",
          "type": "address"
        }
      ],
      "stateMutability": "view",
      "type": "function"
    },
    {
      "inputs": [
        {
          "internalType": "uint256",
          "name": "_duration",
          "type": "uint256"
        }
      ],
      "name": "setRewardsDuration",
      "outputs": [],
      "stateMutability": "nonpayable",
      "type": "function"
    },
    {
      "inputs": [
        {
          "internalType": "uint256",
          "name": "_amount",
          "type": "uint256"
        },
        {
          "components": [
            {
              "internalType": "uint256",
              "name": "expireAt",
              "type": "uint256"
            },
            {
              "internalType": "bytes",
              "name": "signature",
              "type": "bytes"
            }
          ],
          "internalType": "struct ICounterPartyRiskAttestation.craParams",
          "name": "_params",
          "type": "tuple"
        }
      ],
      "name": "stake",
      "outputs": [],
      "stateMutability": "nonpayable",
      "type": "function"
    },
    {
      "inputs": [],
      "name": "stakingToken",
      "outputs": [
        {
          "internalType": "contract IERC20",
          "name": "",
          "type": "address"
        }
      ],
      "stateMutability": "view",
      "type": "function"
    },
    {
      "inputs": [],
      "name": "totalSupply",
      "outputs": [
        {
          "internalType": "uint256",
          "name": "",
          "type": "uint256"
        }
      ],
      "stateMutability": "view",
      "type": "function"
    },
    {
      "inputs": [],
      "name": "updatedAt",
      "outputs": [
        {
          "internalType": "uint256",
          "name": "",
          "type": "uint256"
        }
      ],
      "stateMutability": "view",
      "type": "function"
    },
    {
      "inputs": [
        {
          "internalType": "address",
          "name": "",
          "type": "address"
        }
      ],
      "name": "userRewardPerTokenPaid",
      "outputs": [
        {
          "internalType": "uint256",
          "name": "",
          "type": "uint256"
        }
      ],
      "stateMutability": "view",
      "type": "function"
    },
    {
      "inputs": [
        {
          "internalType": "uint256",
          "name": "_amount",
          "type": "uint256"
        },
        {
          "components": [
            {
              "internalType": "uint256",
              "name": "expireAt",
              "type": "uint256"
            },
            {
              "internalType": "bytes",
              "name": "signature",
              "type": "bytes"
            }
          ],
          "internalType": "struct ICounterPartyRiskAttestation.craParams",
          "name": "_params",
          "type": "tuple"
        }
      ],
      "name": "withdraw",
      "outputs": [],
      "stateMutability": "nonpayable",
      "type": "function"
    }
  ],
  "bytecode": {
    "object": "0x60c060405234801561001057600080fd5b506040516110c33803806110c383398101604081905261002f91610086565b600080546001600160a01b031990811633179091556001600160a01b0393841660805291831660a052600a80549190931691161790556100c9565b80516001600160a01b038116811461008157600080fd5b919050565b60008060006060848603121561009b57600080fd5b6100a48461006a565b92506100b26020850161006a565b91506100c06040850161006a565b90509250925092565b60805160a051610fb961010a60003960008181610285015281816104b20152610a440152600081816101cb0152818161075f0152610bf40152610fb96000f3fe608060405234801561001057600080fd5b506004361061012b5760003560e01c806380faa57d116100ad578063cd3daf9d11610071578063cd3daf9d14610278578063d1af0c7d14610280578063d69aa9a7146102a7578063dda950c7146102ba578063df136d65146102cd57600080fd5b806380faa57d146102175780638b8763471461021f5780638da5cb5b1461023f578063a84726c714610252578063cc1a378f1461026557600080fd5b806367d3b488116100f457806367d3b4881461019d57806370a08231146101a657806372f702f3146101c65780637519ab50146102055780637b0a47ee1461020e57600080fd5b80628cc262146101305780630700037d146101565780630fb5a6b41461017657806318160ddd1461017f5780633c6b16ab14610188575b600080fd5b61014361013e366004610cc8565b6102d6565b6040519081526020015b60405180910390f35b610143610164366004610cc8565b60076020526000908152604090205481565b61014360015481565b61014360085481565b61019b610196366004610cf1565b610353565b005b61014360025481565b6101436101b4366004610cc8565b60096020526000908152604090205481565b6101ed7f000000000000000000000000000000000000000000000000000000000000000081565b6040516001600160a01b03909116815260200161014d565b61014360035481565b61014360045481565b61014361059b565b61014361022d366004610cc8565b60066020526000908152604090205481565b6000546101ed906001600160a01b031681565b61019b610260366004610d22565b6105ae565b61019b610273366004610cf1565b6107dc565b61014361087d565b6101ed7f000000000000000000000000000000000000000000000000000000000000000081565b61019b6102b5366004610d69565b6108de565b61019b6102c8366004610d22565b610a7a565b61014360055481565b6001600160a01b0381166000908152600760209081526040808320546006909252822054670de0b6b3a76400009061030c61087d565b6103169190610dbc565b6001600160a01b0385166000908152600960205260409020546103399190610dcf565b6103439190610de6565b61034d9190610e08565b92915050565b6000546001600160a01b031633146103a35760405162461bcd60e51b815260206004820152600e60248201526d1b9bdd08185d5d1a1bdc9a5e995960921b60448201526064015b60405180910390fd5b60006103ad61087d565b6005556103b861059b565b6003556001600160a01b038116156103ff576103d3816102d6565b6001600160a01b0382166000908152600760209081526040808320939093556005546006909152919020555b600254421061041d576001546104159083610de6565b600455610459565b6000600454426002546104309190610dbc565b61043a9190610dcf565b60015490915061044a8285610e08565b6104549190610de6565b600455505b60006004541161049d5760405162461bcd60e51b815260206004820152600f60248201526e07265776172642072617465203d203608c1b604482015260640161039a565b6040516370a0823160e01b81523060048201527f00000000000000000000000000000000000000000000000000000000000000006001600160a01b0316906370a0823190602401602060405180830381865afa158015610501573d6000803e3d6000fd5b505050506040513d601f19601f820116820180604052508101906105259190610e1b565b6001546004546105359190610dcf565b11156105835760405162461bcd60e51b815260206004820152601760248201527f72657761726420616d6f756e74203e2062616c616e6365000000000000000000604482015260640161039a565b6001546105909042610e08565b600255505042600355565b60006105a960025442610caf565b905090565b336105b761087d565b6005556105c261059b565b6003556001600160a01b03811615610609576105dd816102d6565b6001600160a01b0382166000908152600760209081526040808320939093556005546006909152919020555b600083116106465760405162461bcd60e51b815260206004820152600a6024820152690616d6f756e74203d20360b41b604482015260640161039a565b6040805160c081018252308082526020808301919091523382840152825180840190935260048352630ae8aa8960e31b83820152606082019290925260808101859052833560a0820152600a5490916001600160a01b0390911690631d23ead19083906106b590870187610e34565b6040518463ffffffff1660e01b81526004016106d393929190610eab565b600060405180830381600087803b1580156106ed57600080fd5b505af1158015610701573d6000803e3d6000fd5b50503360009081526009602052604081208054889450909250610725908490610dbc565b92505081905550836008600082825461073e9190610dbc565b909155505060405163a9059cbb60e01b8152336004820152602481018590527f00000000000000000000000000000000000000000000000000000000000000006001600160a01b03169063a9059cbb906044015b6020604051808303816000875af11580156107b1573d6000803e3d6000fd5b505050506040513d601f19601f820116820180604052508101906107d59190610f61565b5050505050565b6000546001600160a01b031633146108275760405162461bcd60e51b815260206004820152600e60248201526d1b9bdd08185d5d1a1bdc9a5e995960921b604482015260640161039a565b42600254106108785760405162461bcd60e51b815260206004820152601c60248201527f726577617264206475726174696f6e206e6f742066696e697368656400000000604482015260640161039a565b600155565b6000600854600003610890575060055490565b60085460035461089e61059b565b6108a89190610dbc565b6004546108b59190610dcf565b6108c790670de0b6b3a7640000610dcf565b6108d19190610de6565b6005546105a99190610e08565b336108e761087d565b6005556108f261059b565b6003556001600160a01b038116156109395761090d816102d6565b6001600160a01b0382166000908152600760209081526040808320939093556005546006909152919020555b336000908152600760205260409020548015610a75576040805160c08101825230808252602080830191909152338284015282518084019093526004835263135554d160e21b83820152606082019290925260808101839052843560a0820152600a5490916001600160a01b0390911690631d23ead19083906109be90880188610e34565b6040518463ffffffff1660e01b81526004016109dc93929190610eab565b600060405180830381600087803b1580156109f657600080fd5b505af1158015610a0a573d6000803e3d6000fd5b505033600081815260076020526040808220919091555163a9059cbb60e01b81526004810191909152602481018590526001600160a01b037f000000000000000000000000000000000000000000000000000000000000000016925063a9059cbb9150604401610792565b505050565b33610a8361087d565b600555610a8e61059b565b6003556001600160a01b03811615610ad557610aa9816102d6565b6001600160a01b0382166000908152600760209081526040808320939093556005546006909152919020555b60008311610b125760405162461bcd60e51b815260206004820152600a6024820152690616d6f756e74203d20360b41b604482015260640161039a565b6040805160c081018252308082523360208084019190915282840191909152825180840190935260048352630ae8aa8960e31b83820152606082019290925260808101859052833560a0820152600a5490916001600160a01b0390911690631d23ead1908390610b8490870187610e34565b6040518463ffffffff1660e01b8152600401610ba293929190610eab565b600060405180830381600087803b158015610bbc57600080fd5b505af1158015610bd0573d6000803e3d6000fd5b50506040516323b872dd60e01b8152336004820152306024820152604481018790527f00000000000000000000000000000000000000000000000000000000000000006001600160a01b031692506323b872dd91506064016020604051808303816000875af1158015610c47573d6000803e3d6000fd5b505050506040513d601f19601f82011682018060405250810190610c6b9190610f61565b503360009081526009602052604081208054869290610c8b908490610e08565b925050819055508360086000828254610ca49190610e08565b909155505050505050565b600081831115610cbf5781610cc1565b825b9392505050565b600060208284031215610cda57600080fd5b81356001600160a01b0381168114610cc157600080fd5b600060208284031215610d0357600080fd5b5035919050565b600060408284031215610d1c57600080fd5b50919050565b60008060408385031215610d3557600080fd5b82359150602083013567ffffffffffffffff811115610d5357600080fd5b610d5f85828601610d0a565b9150509250929050565b600060208284031215610d7b57600080fd5b813567ffffffffffffffff811115610d9257600080fd5b610d9e84828501610d0a565b949350505050565b634e487b7160e01b600052601160045260246000fd5b8181038181111561034d5761034d610da6565b808202811582820484141761034d5761034d610da6565b600082610e0357634e487b7160e01b600052601260045260246000fd5b500490565b8082018082111561034d5761034d610da6565b600060208284031215610e2d57600080fd5b5051919050565b6000808335601e19843603018112610e4b57600080fd5b83018035915067ffffffffffffffff821115610e6657600080fd5b602001915036819003821315610e7b57600080fd5b9250929050565b81835281816020850137506000828201602090810191909152601f909101601f19169091010190565b60408152600060018060a01b03808651166040840152602081818801511660608501528160408801511660808501526060870151915060c060a085015281518061010086015260005b81811015610f115783810183015186820161012001528201610ef4565b5061012092506000838287010152601f19601f82011685019050608088015160c086015260a088015160e0860152828582030182860152610f558382018789610e82565b98975050505050505050565b600060208284031215610f7357600080fd5b81518015158114610cc157600080fdfea264697066735822122071d5077a0a307a345fbca154210949566128a8e0b90f09881a0149ead9cc0c8e64736f6c63430008110033",
    "linkReferences": {}
  },
  "methodIdentifiers": {
    "balanceOf(address)": "70a08231",
    "duration()": "0fb5a6b4",
    "earned(address)": "008cc262",
    "finishAt()": "67d3b488",
    "getReward((uint256,bytes))": "d69aa9a7",
    "lastTimeRewardApplicable()": "80faa57d",
    "notifyRewardAmount(uint256)": "3c6b16ab",
    "owner()": "8da5cb5b",
    "rewardPerToken()": "cd3daf9d",
    "rewardPerTokenStored()": "df136d65",
    "rewardRate()": "7b0a47ee",
    "rewards(address)": "0700037d",
    "rewardsToken()": "d1af0c7d",
    "setRewardsDuration(uint256)": "cc1a378f",
    "stake(uint256,(uint256,bytes))": "dda950c7",
    "stakingToken()": "72f702f3",
    "totalSupply()": "18160ddd",
    "updatedAt()": "7519ab50",
    "userRewardPerTokenPaid(address)": "8b876347",
    "withdraw(uint256,(uint256,bytes))": "a84726c7"
  },
  "id": 1
}