{
  "abi": [
    {
      "inputs": [
        {
          "internalType": "address",
          "name": "_stakingToken",
          "type": "address"
        },
        {
          "internalType": "address",
          "name": "_rewardToken",
          "type": "address"
        },
        {
          "internalType": "address",
          "name": "_cra",
          "type": "address"
        }
      ],
      "stateMutability": "nonpayable",
      "type": "constructor"
    },
    {
      "inputs": [
        {
          "internalType": "address",
          "name": "",
          "type": "address"
        }
      ],
      "name": "balanceOf",
      "outputs": [
        {
          "internalType": "uint256",
          "name": "",
          "type": "uint256"
        }
      ],
      "stateMutability": "view",
      "type": "function"
    },
    {
      "inputs": [],
      "name": "duration",
      "outputs": [
        {
          "internalType": "uint256",
          "name": "",
          "type": "uint256"
        }
      ],
      "stateMutability": "view",
      "type": "function"
    },
    {
      "inputs": [
        {
          "internalType": "address",
          "name": "_account",
          "type": "address"
        }
      ],
      "name": "earned",
      "outputs": [
        {
          "internalType": "uint256",
          "name": "",
          "type": "uint256"
        }
      ],
      "stateMutability": "view",
      "type": "function"
    },
    {
      "inputs": [],
      "name": "finishAt",
      "outputs": [
        {
          "internalType": "uint256",
          "name": "",
          "type": "uint256"
        }
      ],
      "stateMutability": "view",
      "type": "function"
    },
    {
      "inputs": [
        {
          "components": [
            {
              "internalType": "uint256",
              "name": "expireAt",
              "type": "uint256"
            },
            {
              "internalType": "bytes",
              "name": "signature",
              "type": "bytes"
            }
          ],
          "internalType": "struct ICounterPartyRiskAttestation.craParams",
          "name": "_params",
          "type": "tuple"
        }
      ],
      "name": "getReward",
      "outputs": [],
      "stateMutability": "nonpayable",
      "type": "function"
    },
    {
      "inputs": [],
      "name": "lastTimeRewardApplicable",
      "outputs": [
        {
          "internalType": "uint256",
          "name": "",
          "type": "uint256"
        }
      ],
      "stateMutability": "view",
      "type": "function"
    },
    {
      "inputs": [
        {
          "internalType": "uint256",
          "name": "_amount",
          "type": "uint256"
        }
      ],
      "name": "notifyRewardAmount",
      "outputs": [],
      "stateMutability": "nonpayable",
      "type": "function"
    },
    {
      "inputs": [],
      "name": "owner",
      "outputs": [
        {
          "internalType": "address",
          "name": "",
          "type": "address"
        }
      ],
      "stateMutability": "view",
      "type": "function"
    },
    {
      "inputs": [],
      "name": "rewardPerToken",
      "outputs": [
        {
          "internalType": "uint256",
          "name": "",
          "type": "uint256"
        }
      ],
      "stateMutability": "view",
      "type": "function"
    },
    {
      "inputs": [],
      "name": "rewardPerTokenStored",
      "outputs": [
        {
          "internalType": "uint256",
          "name": "",
          "type": "uint256"
        }
      ],
      "stateMutability": "view",
      "type": "function"
    },
    {
      "inputs": [],
      "name": "rewardRate",
      "outputs": [
        {
          "internalType": "uint256",
          "name": "",
          "type": "uint256"
        }
      ],
      "stateMutability": "view",
      "type": "function"
    },
    {
      "inputs": [
        {
          "internalType": "address",
          "name": "",
          "type": "address"
        }
      ],
      "name": "rewards",
      "outputs": [
        {
          "internalType": "uint256",
          "name": "",
          "type": "uint256"
        }
      ],
      "stateMutability": "view",
      "type": "function"
    },
    {
      "inputs": [],
      "name": "rewardsToken",
      "outputs": [
        {
          "internalType": "contract IERC20",
          "name": "",
          "type": "address"
        }
      ],
      "stateMutability": "view",
      "type": "function"
    },
    {
      "inputs": [
        {
          "internalType": "address",
          "name": "_cra",
          "type": "address"
        }
      ],
      "name": "setCRA",
      "outputs": [],
      "stateMutability": "nonpayable",
      "type": "function"
    },
    {
      "inputs": [
        {
          "internalType": "uint256",
          "name": "_duration",
          "type": "uint256"
        }
      ],
      "name": "setRewardsDuration",
      "outputs": [],
      "stateMutability": "nonpayable",
      "type": "function"
    },
    {
      "inputs": [
        {
          "internalType": "uint256",
          "name": "_amount",
          "type": "uint256"
        },
        {
          "components": [
            {
              "internalType": "uint256",
              "name": "expireAt",
              "type": "uint256"
            },
            {
              "internalType": "bytes",
              "name": "signature",
              "type": "bytes"
            }
          ],
          "internalType": "struct ICounterPartyRiskAttestation.craParams",
          "name": "_params",
          "type": "tuple"
        }
      ],
      "name": "stake",
      "outputs": [],
      "stateMutability": "nonpayable",
      "type": "function"
    },
    {
      "inputs": [],
      "name": "stakingToken",
      "outputs": [
        {
          "internalType": "contract IERC20",
          "name": "",
          "type": "address"
        }
      ],
      "stateMutability": "view",
      "type": "function"
    },
    {
      "inputs": [],
      "name": "totalSupply",
      "outputs": [
        {
          "internalType": "uint256",
          "name": "",
          "type": "uint256"
        }
      ],
      "stateMutability": "view",
      "type": "function"
    },
    {
      "inputs": [],
      "name": "updatedAt",
      "outputs": [
        {
          "internalType": "uint256",
          "name": "",
          "type": "uint256"
        }
      ],
      "stateMutability": "view",
      "type": "function"
    },
    {
      "inputs": [
        {
          "internalType": "address",
          "name": "",
          "type": "address"
        }
      ],
      "name": "userRewardPerTokenPaid",
      "outputs": [
        {
          "internalType": "uint256",
          "name": "",
          "type": "uint256"
        }
      ],
      "stateMutability": "view",
      "type": "function"
    },
    {
      "inputs": [
        {
          "internalType": "uint256",
          "name": "_amount",
          "type": "uint256"
        },
        {
          "components": [
            {
              "internalType": "uint256",
              "name": "expireAt",
              "type": "uint256"
            },
            {
              "internalType": "bytes",
              "name": "signature",
              "type": "bytes"
            }
          ],
          "internalType": "struct ICounterPartyRiskAttestation.craParams",
          "name": "_params",
          "type": "tuple"
        }
      ],
      "name": "withdraw",
      "outputs": [],
      "stateMutability": "nonpayable",
      "type": "function"
    }
  ],
  "bytecode": {
    "object": "0x60c060405234801561001057600080fd5b506040516110fe3803806110fe83398101604081905261002f91610086565b600080546001600160a01b031990811633179091556001600160a01b0393841660805291831660a052600a80549190931691161790556100c9565b80516001600160a01b038116811461008157600080fd5b919050565b60008060006060848603121561009b57600080fd5b6100a48461006a565b92506100b26020850161006a565b91506100c06040850161006a565b90509250925092565b60805160a051610ff461010a600039600081816102c0015281816104ed0152610a7f0152600081816101d60152818161079a0152610c2f0152610ff46000f3fe608060405234801561001057600080fd5b50600436106101365760003560e01c806380faa57d116100b8578063cc1a378f1161007c578063cc1a378f146102a0578063cd3daf9d146102b3578063d1af0c7d146102bb578063d69aa9a7146102e2578063dda950c7146102f5578063df136d651461030857600080fd5b806380faa57d146102225780638b8763471461022a5780638da5cb5b1461024a578063a84726c71461025d578063b10e46a21461027057600080fd5b806367d3b488116100ff57806367d3b488146101a857806370a08231146101b157806372f702f3146101d15780637519ab50146102105780637b0a47ee1461021957600080fd5b80628cc2621461013b5780630700037d146101615780630fb5a6b41461018157806318160ddd1461018a5780633c6b16ab14610193575b600080fd5b61014e610149366004610d03565b610311565b6040519081526020015b60405180910390f35b61014e61016f366004610d03565b60076020526000908152604090205481565b61014e60015481565b61014e60085481565b6101a66101a1366004610d2c565b61038e565b005b61014e60025481565b61014e6101bf366004610d03565b60096020526000908152604090205481565b6101f87f000000000000000000000000000000000000000000000000000000000000000081565b6040516001600160a01b039091168152602001610158565b61014e60035481565b61014e60045481565b61014e6105d6565b61014e610238366004610d03565b60066020526000908152604090205481565b6000546101f8906001600160a01b031681565b6101a661026b366004610d5d565b6105e9565b6101a661027e366004610d03565b600a80546001600160a01b0319166001600160a01b0392909216919091179055565b6101a66102ae366004610d2c565b610817565b61014e6108b8565b6101f87f000000000000000000000000000000000000000000000000000000000000000081565b6101a66102f0366004610da4565b610919565b6101a6610303366004610d5d565b610ab5565b61014e60055481565b6001600160a01b0381166000908152600760209081526040808320546006909252822054670de0b6b3a7640000906103476108b8565b6103519190610df7565b6001600160a01b0385166000908152600960205260409020546103749190610e0a565b61037e9190610e21565b6103889190610e43565b92915050565b6000546001600160a01b031633146103de5760405162461bcd60e51b815260206004820152600e60248201526d1b9bdd08185d5d1a1bdc9a5e995960921b60448201526064015b60405180910390fd5b60006103e86108b8565b6005556103f36105d6565b6003556001600160a01b0381161561043a5761040e81610311565b6001600160a01b0382166000908152600760209081526040808320939093556005546006909152919020555b6002544210610458576001546104509083610e21565b600455610494565b60006004544260025461046b9190610df7565b6104759190610e0a565b6001549091506104858285610e43565b61048f9190610e21565b600455505b6000600454116104d85760405162461bcd60e51b815260206004820152600f60248201526e07265776172642072617465203d203608c1b60448201526064016103d5565b6040516370a0823160e01b81523060048201527f00000000000000000000000000000000000000000000000000000000000000006001600160a01b0316906370a0823190602401602060405180830381865afa15801561053c573d6000803e3d6000fd5b505050506040513d601f19601f820116820180604052508101906105609190610e56565b6001546004546105709190610e0a565b11156105be5760405162461bcd60e51b815260206004820152601760248201527f72657761726420616d6f756e74203e2062616c616e636500000000000000000060448201526064016103d5565b6001546105cb9042610e43565b600255505042600355565b60006105e460025442610cea565b905090565b336105f26108b8565b6005556105fd6105d6565b6003556001600160a01b038116156106445761061881610311565b6001600160a01b0382166000908152600760209081526040808320939093556005546006909152919020555b600083116106815760405162461bcd60e51b815260206004820152600a6024820152690616d6f756e74203d20360b41b60448201526064016103d5565b6040805160c081018252308082526020808301919091523382840152825180840190935260048352630ae8aa8960e31b83820152606082019290925260808101859052833560a0820152600a5490916001600160a01b0390911690631d23ead19083906106f090870187610e6f565b6040518463ffffffff1660e01b815260040161070e93929190610ee6565b600060405180830381600087803b15801561072857600080fd5b505af115801561073c573d6000803e3d6000fd5b50503360009081526009602052604081208054889450909250610760908490610df7565b9250508190555083600860008282546107799190610df7565b909155505060405163a9059cbb60e01b8152336004820152602481018590527f00000000000000000000000000000000000000000000000000000000000000006001600160a01b03169063a9059cbb906044015b6020604051808303816000875af11580156107ec573d6000803e3d6000fd5b505050506040513d601f19601f820116820180604052508101906108109190610f9c565b5050505050565b6000546001600160a01b031633146108625760405162461bcd60e51b815260206004820152600e60248201526d1b9bdd08185d5d1a1bdc9a5e995960921b60448201526064016103d5565b42600254106108b35760405162461bcd60e51b815260206004820152601c60248201527f726577617264206475726174696f6e206e6f742066696e69736865640000000060448201526064016103d5565b600155565b60006008546000036108cb575060055490565b6008546003546108d96105d6565b6108e39190610df7565b6004546108f09190610e0a565b61090290670de0b6b3a7640000610e0a565b61090c9190610e21565b6005546105e49190610e43565b336109226108b8565b60055561092d6105d6565b6003556001600160a01b038116156109745761094881610311565b6001600160a01b0382166000908152600760209081526040808320939093556005546006909152919020555b336000908152600760205260409020548015610ab0576040805160c08101825230808252602080830191909152338284015282518084019093526004835263135554d160e21b83820152606082019290925260808101839052843560a0820152600a5490916001600160a01b0390911690631d23ead19083906109f990880188610e6f565b6040518463ffffffff1660e01b8152600401610a1793929190610ee6565b600060405180830381600087803b158015610a3157600080fd5b505af1158015610a45573d6000803e3d6000fd5b505033600081815260076020526040808220919091555163a9059cbb60e01b81526004810191909152602481018590526001600160a01b037f000000000000000000000000000000000000000000000000000000000000000016925063a9059cbb91506044016107cd565b505050565b33610abe6108b8565b600555610ac96105d6565b6003556001600160a01b03811615610b1057610ae481610311565b6001600160a01b0382166000908152600760209081526040808320939093556005546006909152919020555b60008311610b4d5760405162461bcd60e51b815260206004820152600a6024820152690616d6f756e74203d20360b41b60448201526064016103d5565b6040805160c081018252308082523360208084019190915282840191909152825180840190935260048352630ae8aa8960e31b83820152606082019290925260808101859052833560a0820152600a5490916001600160a01b0390911690631d23ead1908390610bbf90870187610e6f565b6040518463ffffffff1660e01b8152600401610bdd93929190610ee6565b600060405180830381600087803b158015610bf757600080fd5b505af1158015610c0b573d6000803e3d6000fd5b50506040516323b872dd60e01b8152336004820152306024820152604481018790527f00000000000000000000000000000000000000000000000000000000000000006001600160a01b031692506323b872dd91506064016020604051808303816000875af1158015610c82573d6000803e3d6000fd5b505050506040513d601f19601f82011682018060405250810190610ca69190610f9c565b503360009081526009602052604081208054869290610cc6908490610e43565b925050819055508360086000828254610cdf9190610e43565b909155505050505050565b600081831115610cfa5781610cfc565b825b9392505050565b600060208284031215610d1557600080fd5b81356001600160a01b0381168114610cfc57600080fd5b600060208284031215610d3e57600080fd5b5035919050565b600060408284031215610d5757600080fd5b50919050565b60008060408385031215610d7057600080fd5b82359150602083013567ffffffffffffffff811115610d8e57600080fd5b610d9a85828601610d45565b9150509250929050565b600060208284031215610db657600080fd5b813567ffffffffffffffff811115610dcd57600080fd5b610dd984828501610d45565b949350505050565b634e487b7160e01b600052601160045260246000fd5b8181038181111561038857610388610de1565b808202811582820484141761038857610388610de1565b600082610e3e57634e487b7160e01b600052601260045260246000fd5b500490565b8082018082111561038857610388610de1565b600060208284031215610e6857600080fd5b5051919050565b6000808335601e19843603018112610e8657600080fd5b83018035915067ffffffffffffffff821115610ea157600080fd5b602001915036819003821315610eb657600080fd5b9250929050565b81835281816020850137506000828201602090810191909152601f909101601f19169091010190565b60408152600060018060a01b03808651166040840152602081818801511660608501528160408801511660808501526060870151915060c060a085015281518061010086015260005b81811015610f4c5783810183015186820161012001528201610f2f565b5061012092506000838287010152601f19601f82011685019050608088015160c086015260a088015160e0860152828582030182860152610f908382018789610ebd565b98975050505050505050565b600060208284031215610fae57600080fd5b81518015158114610cfc57600080fdfea26469706673582212208368e5a88b2d349b332f3c9dc285c45e9ebe0cb48ad39c42bc66e3a38e68cbc664736f6c63430008110033",
    "linkReferences": {}
  },
  "methodIdentifiers": {
    "balanceOf(address)": "70a08231",
    "duration()": "0fb5a6b4",
    "earned(address)": "008cc262",
    "finishAt()": "67d3b488",
    "getReward((uint256,bytes))": "d69aa9a7",
    "lastTimeRewardApplicable()": "80faa57d",
    "notifyRewardAmount(uint256)": "3c6b16ab",
    "owner()": "8da5cb5b",
    "rewardPerToken()": "cd3daf9d",
    "rewardPerTokenStored()": "df136d65",
    "rewardRate()": "7b0a47ee",
    "rewards(address)": "0700037d",
    "rewardsToken()": "d1af0c7d",
    "setCRA(address)": "b10e46a2",
    "setRewardsDuration(uint256)": "cc1a378f",
    "stake(uint256,(uint256,bytes))": "dda950c7",
    "stakingToken()": "72f702f3",
    "totalSupply()": "18160ddd",
    "updatedAt()": "7519ab50",
    "userRewardPerTokenPaid(address)": "8b876347",
    "withdraw(uint256,(uint256,bytes))": "a84726c7"
  },
  "id": 1
}