{
  "abi": [
    {
      "inputs": [
        {
          "internalType": "address",
          "name": "_signer",
          "type": "address"
        }
      ],
      "stateMutability": "nonpayable",
      "type": "constructor"
    },
    {
      "anonymous": false,
      "inputs": [
        {
          "indexed": true,
          "internalType": "address",
          "name": "_customerVASP",
          "type": "address"
        },
        {
          "indexed": true,
          "internalType": "address",
          "name": "_originator",
          "type": "address"
        },
        {
          "indexed": true,
          "internalType": "address",
          "name": "_beneficiary",
          "type": "address"
        },
        {
          "indexed": false,
          "internalType": "string",
          "name": "_symbol",
          "type": "string"
        },
        {
          "indexed": false,
          "internalType": "uint256",
          "name": "_amount",
          "type": "uint256"
        }
      ],
      "name": "CounterpartyRiskAttestation",
      "type": "event"
    },
    {
      "anonymous": false,
      "inputs": [
        {
          "indexed": true,
          "internalType": "address",
          "name": "previousOwner",
          "type": "address"
        },
        {
          "indexed": true,
          "internalType": "address",
          "name": "newOwner",
          "type": "address"
        }
      ],
      "name": "OwnershipTransferred",
      "type": "event"
    },
    {
      "inputs": [],
      "name": "getDomainHash",
      "outputs": [
        {
          "internalType": "bytes32",
          "name": "",
          "type": "bytes32"
        }
      ],
      "stateMutability": "view",
      "type": "function"
    },
    {
      "inputs": [],
      "name": "getSigner",
      "outputs": [
        {
          "internalType": "address",
          "name": "",
          "type": "address"
        }
      ],
      "stateMutability": "view",
      "type": "function"
    },
    {
      "inputs": [
        {
          "internalType": "bytes32",
          "name": "_sigHash",
          "type": "bytes32"
        }
      ],
      "name": "hashSignature",
      "outputs": [
        {
          "internalType": "bytes",
          "name": "",
          "type": "bytes"
        }
      ],
      "stateMutability": "view",
      "type": "function"
    },
    {
      "inputs": [],
      "name": "owner",
      "outputs": [
        {
          "internalType": "address",
          "name": "",
          "type": "address"
        }
      ],
      "stateMutability": "view",
      "type": "function"
    },
    {
      "inputs": [],
      "name": "renounceOwnership",
      "outputs": [],
      "stateMutability": "nonpayable",
      "type": "function"
    },
    {
      "inputs": [
        {
          "internalType": "address",
          "name": "_signer",
          "type": "address"
        }
      ],
      "name": "setSigner",
      "outputs": [],
      "stateMutability": "nonpayable",
      "type": "function"
    },
    {
      "inputs": [
        {
          "internalType": "address",
          "name": "newOwner",
          "type": "address"
        }
      ],
      "name": "transferOwnership",
      "outputs": [],
      "stateMutability": "nonpayable",
      "type": "function"
    },
    {
      "inputs": [
        {
          "components": [
            {
              "internalType": "address",
              "name": "VASPAddress",
              "type": "address"
            },
            {
              "internalType": "address",
              "name": "originator",
              "type": "address"
            },
            {
              "internalType": "address",
              "name": "beneficiary",
              "type": "address"
            },
            {
              "internalType": "string",
              "name": "symbol",
              "type": "string"
            },
            {
              "internalType": "uint256",
              "name": "amount",
              "type": "uint256"
            },
            {
              "internalType": "uint256",
              "name": "expireAt",
              "type": "uint256"
            }
          ],
          "internalType": "struct ICounterpartyRiskOracle.CRA",
          "name": "_msg",
          "type": "tuple"
        },
        {
          "internalType": "bytes",
          "name": "_sig",
          "type": "bytes"
        }
      ],
      "name": "verifyCounterpartyRisk",
      "outputs": [],
      "stateMutability": "nonpayable",
      "type": "function"
    }
  ],
  "bytecode": {
    "object": "0x60a060405234801561001057600080fd5b50604051610ff7380380610ff783398101604081905261002f916101ec565b6100383361019c565b6001600160a01b0381166100925760405162461bcd60e51b815260206004820152601f60248201527f43524f3a20506c65617365207573652061206e6f6e2030206164647265737300604482015260640160405180910390fd5b600180546001600160a01b0319166001600160a01b038316178155604080518082018252601981527f436f756e746572205061727479205269736b204f7261636c650000000000000060209182015281518083018352928352603160f81b9281019290925280517f8b73c3c69bb8fe3d512ecc4cf759cc79239f7b179b0ffacaa9a75d522b39400f928101929092527f2ab1f2440c777a1f318b5cb16bb91016d88deccee56c2be8c1b51bbb9871bdb4908201527fc89efdaa54c0f20c7adf612882df0950f5a951637e0307cdcb4c672f298b8bc660608201524660808201523060a082015260c00160408051601f1981840301815291905280516020909101206080525061021c565b600080546001600160a01b038381166001600160a01b0319831681178455604051919092169283917f8be0079c531659141344cd1fd0a4f28419497f9722a3daafe3b4186f6b6457e09190a35050565b6000602082840312156101fe57600080fd5b81516001600160a01b038116811461021557600080fd5b9392505050565b608051610db961023e60003960008181610110015261039b0152610db96000f3fe608060405234801561001057600080fd5b50600436106100885760003560e01c80637ac3c02f1161005b5780637ac3c02f146100e657806383ebb7711461010b5780638da5cb5b14610139578063f2fde38b1461014a57600080fd5b80631d23ead11461008d57806339d2b9f6146100a25780636c19e783146100cb578063715018a6146100de575b600080fd5b6100a061009b3660046109d2565b61015d565b005b6100b56100b0366004610b02565b610502565b6040516100c29190610b6b565b60405180910390f35b6100a06100d9366004610b85565b6105a4565b6100a0610624565b6001546001600160a01b03165b6040516001600160a01b0390911681526020016100c2565b6040517f000000000000000000000000000000000000000000000000000000000000000081526020016100c2565b6000546001600160a01b03166100f3565b6100a0610158366004610b85565b610638565b428360a00151116101ad5760405162461bcd60e51b815260206004820152601560248201527410d493ce88111958591b1a5b9948195e1c1a5c9959605a1b60448201526064015b60405180910390fd5b82602001516001600160a01b031683600001516001600160a01b031614806101ee575082604001516001600160a01b031683600001516001600160a01b0316145b61023a5760405162461bcd60e51b815260206004820152601a60248201527f43524f3a20496e76616c696420637573746f6d6572205641535000000000000060448201526064016101a4565b600083602001516001600160a01b031684600001516001600160a01b0316146102695750604083015180610271565b506020830151805b506001600160a01b03811633146102c05760405162461bcd60e51b815260206004820152601360248201527221a9279d1024b73b30b634b21039b2b73232b960691b60448201526064016101a4565b60006102cb856106b1565b60008181526002602052604090208054919250906102e890610ba0565b15905061034a5760405162461bcd60e51b815260206004820152602a60248201527f43524f3a20416c726561647920766572696669656420627920746865206375736044820152690746f6d657220564153560b41b60648201526084016101a4565b600080600061038e87878080601f01602080910402602001604051908101604052809392919081815260200183838082843760009201919091525061072592505050565b92509250925060006103c37f000000000000000000000000000000000000000000000000000000000000000086848787610799565b6001549091506001600160a01b0380831691161461041c5760405162461bcd60e51b815260206004820152601660248201527543524f3a20496e76616c6964207369676e617475726560501b60448201526064016101a4565b6001600160a01b0381166104725760405162461bcd60e51b815260206004820152601860248201527f45434453413a20496e76616c6964207369676e6174757265000000000000000060448201526064016101a4565b600085815260026020526040902061048b888a83610c29565b5088604001516001600160a01b031689602001516001600160a01b03168a600001516001600160a01b03167f1762647b7931805ee09cd9d8193a823d3a7cf4c4c8ec1ce8d3c9d318af2b4a458c606001518d608001516040516104ef929190610cea565b60405180910390a4505050505050505050565b600081815260026020526040902080546060919061051f90610ba0565b80601f016020809104026020016040519081016040528092919081815260200182805461054b90610ba0565b80156105985780601f1061056d57610100808354040283529160200191610598565b820191906000526020600020905b81548152906001019060200180831161057b57829003601f168201915b50505050509050919050565b6105ac610853565b6001600160a01b0381166106025760405162461bcd60e51b815260206004820152601f60248201527f43524f3a20506c65617365207573652061206e6f6e203020616464726573730060448201526064016101a4565b600180546001600160a01b0319166001600160a01b0392909216919091179055565b61062c610853565b61063660006108ad565b565b610640610853565b6001600160a01b0381166106a55760405162461bcd60e51b815260206004820152602660248201527f4f776e61626c653a206e6577206f776e657220697320746865207a65726f206160448201526564647265737360d01b60648201526084016101a4565b6106ae816108ad565b50565b60007f70fa7e976ae7888309b0257837ad3f859742f368c48b27f3117be000a91c5497826000015183602001518460400151856060015186608001518760a001516040516020016107089796959493929190610d0c565b604051602081830303815290604052805190602001209050919050565b6000806000835160411461077b5760405162461bcd60e51b815260206004820152601d60248201527f43524f3a20496e76616c6964207369676e6174757265206c656e67746800000060448201526064016101a4565b50505060208101516040820151606090920151909260009190911a90565b60008060405180604001604052806002815260200161190160f01b815250905060008188886040516020016107d093929190610d5c565b60408051601f198184030181528282528051602091820120600080855291840180845281905260ff8a169284019290925260608301889052608083018790529092509060019060a0016020604051602081039080840390855afa15801561083b573d6000803e3d6000fd5b5050604051601f1901519a9950505050505050505050565b6000546001600160a01b031633146106365760405162461bcd60e51b815260206004820181905260248201527f4f776e61626c653a2063616c6c6572206973206e6f7420746865206f776e657260448201526064016101a4565b600080546001600160a01b038381166001600160a01b0319831681178455604051919092169283917f8be0079c531659141344cd1fd0a4f28419497f9722a3daafe3b4186f6b6457e09190a35050565b634e487b7160e01b600052604160045260246000fd5b60405160c0810167ffffffffffffffff81118282101715610936576109366108fd565b60405290565b604051601f8201601f1916810167ffffffffffffffff81118282101715610965576109656108fd565b604052919050565b80356001600160a01b038116811461098457600080fd5b919050565b60008083601f84011261099b57600080fd5b50813567ffffffffffffffff8111156109b357600080fd5b6020830191508360208285010111156109cb57600080fd5b9250929050565b6000806000604084860312156109e757600080fd5b833567ffffffffffffffff808211156109ff57600080fd5b9085019060c08288031215610a1357600080fd5b610a1b610913565b610a248361096d565b81526020610a3381850161096d565b81830152610a436040850161096d565b6040830152606084013583811115610a5a57600080fd5b8401601f81018a13610a6b57600080fd5b803584811115610a7d57610a7d6108fd565b610a8f601f8201601f1916840161093c565b8181528b84838501011115610aa357600080fd5b818484018583013760008483830101528060608601525050506080840135608083015260a084013560a0830152819650808801359350505080821115610ae857600080fd5b50610af586828701610989565b9497909650939450505050565b600060208284031215610b1457600080fd5b5035919050565b60005b83811015610b36578181015183820152602001610b1e565b50506000910152565b60008151808452610b57816020860160208601610b1b565b601f01601f19169290920160200192915050565b602081526000610b7e6020830184610b3f565b9392505050565b600060208284031215610b9757600080fd5b610b7e8261096d565b600181811c90821680610bb457607f821691505b602082108103610bd457634e487b7160e01b600052602260045260246000fd5b50919050565b601f821115610c2457600081815260208120601f850160051c81016020861015610c015750805b601f850160051c820191505b81811015610c2057828155600101610c0d565b5050505b505050565b67ffffffffffffffff831115610c4157610c416108fd565b610c5583610c4f8354610ba0565b83610bda565b6000601f841160018114610c895760008515610c715750838201355b600019600387901b1c1916600186901b178355610ce3565b600083815260209020601f19861690835b82811015610cba5786850135825560209485019460019092019101610c9a565b5086821015610cd75760001960f88860031b161c19848701351681555b505060018560011b0183555b5050505050565b604081526000610cfd6040830185610b3f565b90508260208301529392505050565b8781526001600160a01b03878116602083015286811660408301528516606082015260e060808201819052600090610d4690830186610b3f565b60a08301949094525060c0015295945050505050565b60008451610d6e818460208901610b1b565b9190910192835250602082015260400191905056fea2646970667358221220b931faf4534260a7985e12294809487d6f4d98fbb984b202f9a5683746bcdb3964736f6c63430008110033",
    "linkReferences": {}
  },
  "methodIdentifiers": {
    "getDomainHash()": "83ebb771",
    "getSigner()": "7ac3c02f",
    "hashSignature(bytes32)": "39d2b9f6",
    "owner()": "8da5cb5b",
    "renounceOwnership()": "715018a6",
    "setSigner(address)": "6c19e783",
    "transferOwnership(address)": "f2fde38b",
    "verifyCounterpartyRisk((address,address,address,string,uint256,uint256),bytes)": "1d23ead1"
  },
  "id": 2
}