{
  "abi": [
    {
      "inputs": [
        {
          "internalType": "bytes32",
          "name": "_DOMAIN_SEPARATOR",
          "type": "bytes32"
        }
      ],
      "stateMutability": "nonpayable",
      "type": "constructor"
    },
    {
      "inputs": [],
      "name": "CRA_TYPEHASH",
      "outputs": [
        {
          "internalType": "bytes32",
          "name": "",
          "type": "bytes32"
        }
      ],
      "stateMutability": "view",
      "type": "function"
    },
    {
      "inputs": [
        {
          "components": [
            {
              "internalType": "address",
              "name": "VASPAddress",
              "type": "address"
            },
            {
              "internalType": "address",
              "name": "originator",
              "type": "address"
            },
            {
              "internalType": "address",
              "name": "beneficiary",
              "type": "address"
            },
            {
              "internalType": "string",
              "name": "symbol",
              "type": "string"
            },
            {
              "internalType": "uint256",
              "name": "amount",
              "type": "uint256"
            },
            {
              "internalType": "uint256",
              "name": "expireAt",
              "type": "uint256"
            }
          ],
          "internalType": "struct SigUtils.CRA",
          "name": "_msg",
          "type": "tuple"
        }
      ],
      "name": "getStructHash",
      "outputs": [
        {
          "internalType": "bytes32",
          "name": "",
          "type": "bytes32"
        }
      ],
      "stateMutability": "pure",
      "type": "function"
    },
    {
      "inputs": [
        {
          "components": [
            {
              "internalType": "address",
              "name": "VASPAddress",
              "type": "address"
            },
            {
              "internalType": "address",
              "name": "originator",
              "type": "address"
            },
            {
              "internalType": "address",
              "name": "beneficiary",
              "type": "address"
            },
            {
              "internalType": "string",
              "name": "symbol",
              "type": "string"
            },
            {
              "internalType": "uint256",
              "name": "amount",
              "type": "uint256"
            },
            {
              "internalType": "uint256",
              "name": "expireAt",
              "type": "uint256"
            }
          ],
          "internalType": "struct SigUtils.CRA",
          "name": "_msg",
          "type": "tuple"
        }
      ],
      "name": "getTypedDataHash",
      "outputs": [
        {
          "internalType": "bytes32",
          "name": "",
          "type": "bytes32"
        }
      ],
      "stateMutability": "view",
      "type": "function"
    }
  ],
  "bytecode": {
    "object": "0x608060405234801561001057600080fd5b506040516103ac3803806103ac83398101604081905261002f91610037565b600055610050565b60006020828403121561004957600080fd5b5051919050565b61034d8061005f6000396000f3fe608060405234801561001057600080fd5b50600436106100415760003560e01c80633dcb81cd1461004657806356bc57941461006b578063a6a25cb01461007e575b600080fd5b61005961005436600461020f565b6100a5565b60405190815260200160405180910390f35b61005961007936600461020f565b6100ee565b6100597f0437aae69c54cd2466509c2a8ff9665c8db4aeca454a7326b4d054709a5b07ea81565b600080546100b2836100ee565b60405161190160f01b6020820152602281019290925260428201526062015b604051602081830303815290604052805190602001209050919050565b80516020808301516040808501516060860151805190850120608087015160a088015193516000976100d1977f0437aae69c54cd2466509c2a8ff9665c8db4aeca454a7326b4d054709a5b07ea9791969195949392019687526001600160a01b0395861660208801529385166040870152919093166060850152608084019290925260a083019190915260c082015260e00190565b634e487b7160e01b600052604160045260246000fd5b60405160c0810167ffffffffffffffff811182821017156101bc576101bc610183565b60405290565b604051601f8201601f1916810167ffffffffffffffff811182821017156101eb576101eb610183565b604052919050565b80356001600160a01b038116811461020a57600080fd5b919050565b6000602080838503121561022257600080fd5b823567ffffffffffffffff8082111561023a57600080fd5b9084019060c0828703121561024e57600080fd5b610256610199565b61025f836101f3565b815261026c8484016101f3565b8482015261027c604084016101f3565b604082015260608301358281111561029357600080fd5b8301601f810188136102a457600080fd5b8035838111156102b6576102b6610183565b6102c8601f8201601f191687016101c2565b935080845288868284010111156102de57600080fd5b8086830187860137600086828601015250508160608201526080830135608082015260a083013560a0820152809450505050509291505056fea2646970667358221220352d0d1bb901b2000492e66639b543247a335cde2c4715a281cf978d0cda8beb64736f6c63430008110033",
    "linkReferences": {}
  },
  "methodIdentifiers": {
    "CRA_TYPEHASH()": "a6a25cb0",
    "getStructHash((address,address,address,string,uint256,uint256))": "56bc5794",
    "getTypedDataHash((address,address,address,string,uint256,uint256))": "3dcb81cd"
  },
  "id": 12
}