{
  "abi": [
    {
      "inputs": [
        {
          "internalType": "bytes32",
          "name": "_DOMAIN_SEPARATOR",
          "type": "bytes32"
        }
      ],
      "stateMutability": "nonpayable",
      "type": "constructor"
    },
    {
      "inputs": [],
      "name": "CRA_TYPEHASH",
      "outputs": [
        {
          "internalType": "bytes32",
          "name": "",
          "type": "bytes32"
        }
      ],
      "stateMutability": "view",
      "type": "function"
    },
    {
      "inputs": [
        {
          "components": [
            {
              "internalType": "address",
              "name": "VASPAddress",
              "type": "address"
            },
            {
              "internalType": "address",
              "name": "originator",
              "type": "address"
            },
            {
              "internalType": "address",
              "name": "beneficiary",
              "type": "address"
            },
            {
              "internalType": "string",
              "name": "symbol",
              "type": "string"
            },
            {
              "internalType": "uint256",
              "name": "amount",
              "type": "uint256"
            },
            {
              "internalType": "uint256",
              "name": "expireAt",
              "type": "uint256"
            }
          ],
          "internalType": "struct SigUtils.CRA",
          "name": "_msg",
          "type": "tuple"
        }
      ],
      "name": "getStructHash",
      "outputs": [
        {
          "internalType": "bytes32",
          "name": "",
          "type": "bytes32"
        }
      ],
      "stateMutability": "pure",
      "type": "function"
    },
    {
      "inputs": [
        {
          "components": [
            {
              "internalType": "address",
              "name": "VASPAddress",
              "type": "address"
            },
            {
              "internalType": "address",
              "name": "originator",
              "type": "address"
            },
            {
              "internalType": "address",
              "name": "beneficiary",
              "type": "address"
            },
            {
              "internalType": "string",
              "name": "symbol",
              "type": "string"
            },
            {
              "internalType": "uint256",
              "name": "amount",
              "type": "uint256"
            },
            {
              "internalType": "uint256",
              "name": "expireAt",
              "type": "uint256"
            }
          ],
          "internalType": "struct SigUtils.CRA",
          "name": "_msg",
          "type": "tuple"
        }
      ],
      "name": "getTypedDataHash",
      "outputs": [
        {
          "internalType": "bytes32",
          "name": "",
          "type": "bytes32"
        }
      ],
      "stateMutability": "view",
      "type": "function"
    }
  ],
  "bytecode": {
    "object": "0x608060405234801561001057600080fd5b506040516103cc3803806103cc83398101604081905261002f91610037565b600055610050565b60006020828403121561004957600080fd5b5051919050565b61036d8061005f6000396000f3fe608060405234801561001057600080fd5b50600436106100415760003560e01c80633dcb81cd1461004657806356bc57941461006b578063a6a25cb01461007e575b600080fd5b6100596100543660046101ae565b6100a5565b60405190815260200160405180910390f35b6100596100793660046101ae565b6100f2565b6100597f70fa7e976ae7888309b0257837ad3f859742f368c48b27f3117be000a91c549781565b600080546100b2836100f2565b6040516530783139303160d01b6020820152602681019290925260468201526066015b604051602081830303815290604052805190602001209050919050565b80516020808301516040808501516060860151608087015160a088015193516000976100d59790969591016102b6565b634e487b7160e01b600052604160045260246000fd5b60405160c0810167ffffffffffffffff8111828210171561015b5761015b610122565b60405290565b604051601f8201601f1916810167ffffffffffffffff8111828210171561018a5761018a610122565b604052919050565b80356001600160a01b03811681146101a957600080fd5b919050565b600060208083850312156101c157600080fd5b823567ffffffffffffffff808211156101d957600080fd5b9084019060c082870312156101ed57600080fd5b6101f5610138565b6101fe83610192565b815261020b848401610192565b8482015261021b60408401610192565b604082015260608301358281111561023257600080fd5b8301601f8101881361024357600080fd5b80358381111561025557610255610122565b610267601f8201601f19168701610161565b9350808452888682840101111561027d57600080fd5b8086830187860137600086828601015250508160608201526080830135608082015260a083013560a08201528094505050505092915050565b600060018060a01b038089168352602081891681850152818816604085015260c06060850152865191508160c085015260005b828110156103055787810182015185820160e0015281016102e9565b5050600060e0828501015260e0601f19601f8301168401019150508360808301528260a083015297965050505050505056fea2646970667358221220cec6c2b65111dfcd99b2fdbe2908148797157cbdc059fb5e993895d306f680ca64736f6c63430008110033",
    "linkReferences": {}
  },
  "methodIdentifiers": {
    "CRA_TYPEHASH()": "a6a25cb0",
    "getStructHash((address,address,address,string,uint256,uint256))": "56bc5794",
    "getTypedDataHash((address,address,address,string,uint256,uint256))": "3dcb81cd"
  },
  "id": 12
}