{
  "abi": [
    {
      "inputs": [
        {
          "internalType": "address",
          "name": "_signer",
          "type": "address"
        }
      ],
      "stateMutability": "nonpayable",
      "type": "constructor"
    },
    {
      "anonymous": false,
      "inputs": [
        {
          "indexed": true,
          "internalType": "address",
          "name": "_customerVASP",
          "type": "address"
        },
        {
          "indexed": true,
          "internalType": "address",
          "name": "_originator",
          "type": "address"
        },
        {
          "indexed": true,
          "internalType": "address",
          "name": "_beneficiary",
          "type": "address"
        },
        {
          "indexed": false,
          "internalType": "string",
          "name": "_symbol",
          "type": "string"
        },
        {
          "indexed": false,
          "internalType": "uint256",
          "name": "_amount",
          "type": "uint256"
        }
      ],
      "name": "CounterpartyRiskAttestation",
      "type": "event"
    },
    {
      "anonymous": false,
      "inputs": [
        {
          "indexed": true,
          "internalType": "address",
          "name": "previousOwner",
          "type": "address"
        },
        {
          "indexed": true,
          "internalType": "address",
          "name": "newOwner",
          "type": "address"
        }
      ],
      "name": "OwnershipTransferred",
      "type": "event"
    },
    {
      "inputs": [],
      "name": "getDomainHash",
      "outputs": [
        {
          "internalType": "bytes32",
          "name": "",
          "type": "bytes32"
        }
      ],
      "stateMutability": "view",
      "type": "function"
    },
    {
      "inputs": [],
      "name": "getSigner",
      "outputs": [
        {
          "internalType": "address",
          "name": "",
          "type": "address"
        }
      ],
      "stateMutability": "view",
      "type": "function"
    },
    {
      "inputs": [
        {
          "components": [
            {
              "internalType": "address",
              "name": "VASPAddress",
              "type": "address"
            },
            {
              "internalType": "address",
              "name": "originator",
              "type": "address"
            },
            {
              "internalType": "address",
              "name": "beneficiary",
              "type": "address"
            },
            {
              "internalType": "string",
              "name": "symbol",
              "type": "string"
            },
            {
              "internalType": "uint256",
              "name": "amount",
              "type": "uint256"
            },
            {
              "internalType": "uint256",
              "name": "expireAt",
              "type": "uint256"
            }
          ],
          "internalType": "struct ICounterPartyRiskAttestation.CRA",
          "name": "_msg",
          "type": "tuple"
        }
      ],
      "name": "getStructHash",
      "outputs": [
        {
          "internalType": "bytes32",
          "name": "",
          "type": "bytes32"
        }
      ],
      "stateMutability": "pure",
      "type": "function"
    },
    {
      "inputs": [
        {
          "internalType": "bytes32",
          "name": "_sigHash",
          "type": "bytes32"
        }
      ],
      "name": "hashSignature",
      "outputs": [
        {
          "internalType": "bytes",
          "name": "",
          "type": "bytes"
        }
      ],
      "stateMutability": "view",
      "type": "function"
    },
    {
      "inputs": [],
      "name": "owner",
      "outputs": [
        {
          "internalType": "address",
          "name": "",
          "type": "address"
        }
      ],
      "stateMutability": "view",
      "type": "function"
    },
    {
      "inputs": [],
      "name": "renounceOwnership",
      "outputs": [],
      "stateMutability": "nonpayable",
      "type": "function"
    },
    {
      "inputs": [
        {
          "internalType": "address",
          "name": "_signer",
          "type": "address"
        }
      ],
      "name": "setSigner",
      "outputs": [],
      "stateMutability": "nonpayable",
      "type": "function"
    },
    {
      "inputs": [
        {
          "internalType": "address",
          "name": "newOwner",
          "type": "address"
        }
      ],
      "name": "transferOwnership",
      "outputs": [],
      "stateMutability": "nonpayable",
      "type": "function"
    },
    {
      "inputs": [
        {
          "components": [
            {
              "internalType": "address",
              "name": "VASPAddress",
              "type": "address"
            },
            {
              "internalType": "address",
              "name": "originator",
              "type": "address"
            },
            {
              "internalType": "address",
              "name": "beneficiary",
              "type": "address"
            },
            {
              "internalType": "string",
              "name": "symbol",
              "type": "string"
            },
            {
              "internalType": "uint256",
              "name": "amount",
              "type": "uint256"
            },
            {
              "internalType": "uint256",
              "name": "expireAt",
              "type": "uint256"
            }
          ],
          "internalType": "struct ICounterPartyRiskAttestation.CRA",
          "name": "_msg",
          "type": "tuple"
        },
        {
          "internalType": "bytes",
          "name": "_sig",
          "type": "bytes"
        }
      ],
      "name": "verifyCounterpartyRisk",
      "outputs": [],
      "stateMutability": "nonpayable",
      "type": "function"
    }
  ],
  "bytecode": {
    "object": "0x60a060405234801561001057600080fd5b50604051610fe0380380610fe083398101604081905261002f91610223565b61003833610136565b6001600160a01b0381166100925760405162461bcd60e51b815260206004820152601f60248201527f4352413a20506c65617365207573652061206e6f6e2030206164647265737300604482015260640160405180910390fd5b600180546001600160a01b0319166001600160a01b0383161781556040805160c081018252601e608082019081527f436f756e746572205061727479205269736b204174746573746174696f6e000060a0830152815281518083018352838152603160f81b6020808301919091528201529081019190915273cccccccccccccccccccccccccccccccccccccccc606082015261012d90610186565b60805250610253565b600080546001600160a01b038381166001600160a01b0319831681178455604051919092169283917f8be0079c531659141344cd1fd0a4f28419497f9722a3daafe3b4186f6b6457e09190a35050565b60007f8b73c3c69bb8fe3d512ecc4cf759cc79239f7b179b0ffacaa9a75d522b39400f826000015180519060200120836020015180519060200120846040015185606001516040516020016102069594939291909485526020850193909352604084019190915260608301526001600160a01b0316608082015260a00190565b604051602081830303815290604052805190602001209050919050565b60006020828403121561023557600080fd5b81516001600160a01b038116811461024c57600080fd5b9392505050565b608051610d6b6102756000396000818161013901526103710152610d6b6000f3fe608060405234801561001057600080fd5b50600436106100935760003560e01c8063715018a611610066578063715018a61461010a5780637ac3c02f1461011257806383ebb771146101375780638da5cb5b1461015d578063f2fde38b1461016e57600080fd5b80631d23ead11461009857806339d2b9f6146100ad57806356bc5794146100d65780636c19e783146100f7575b600080fd5b6100ab6100a6366004610a30565b610181565b005b6100c06100bb366004610ac7565b610482565b6040516100cd9190610b30565b60405180910390f35b6100e96100e4366004610b4a565b610524565b6040519081526020016100cd565b6100ab610105366004610b87565b6105d9565b6100ab610659565b6001546001600160a01b03165b6040516001600160a01b0390911681526020016100cd565b7f00000000000000000000000000000000000000000000000000000000000000006100e9565b6000546001600160a01b031661011f565b6100ab61017c366004610b87565b61066d565b428360a00151116101d15760405162461bcd60e51b815260206004820152601560248201527410d4904e88111958591b1a5b9948195e1c1a5c9959605a1b60448201526064015b60405180910390fd5b82602001516001600160a01b031683600001516001600160a01b03161480610212575082604001516001600160a01b031683600001516001600160a01b0316145b61025e5760405162461bcd60e51b815260206004820152601a60248201527f4352413a20496e76616c696420637573746f6d6572205641535000000000000060448201526064016101c8565b600083602001516001600160a01b031684600001516001600160a01b03161461028d5750604083015180610295565b506020830151805b5060006102a185610524565b60008181526002602052604090208054919250906102be90610ba2565b1590506103205760405162461bcd60e51b815260206004820152602a60248201527f4352413a20416c726561647920766572696669656420627920746865206375736044820152690746f6d657220564153560b41b60648201526084016101c8565b600080600061036487878080601f0160208091040260200160405190810160405280939291908181526020018383808284376000920191909152506106e692505050565b92509250925060006103997f00000000000000000000000000000000000000000000000000000000000000008684878761075a565b6001549091506001600160a01b038083169116146103f25760405162461bcd60e51b81526020600482015260166024820152754352413a20496e76616c6964207369676e617475726560501b60448201526064016101c8565b600085815260026020526040902061040b888a83610c2b565b5088604001516001600160a01b031689602001516001600160a01b03168a600001516001600160a01b03167f1762647b7931805ee09cd9d8193a823d3a7cf4c4c8ec1ce8d3c9d318af2b4a458c606001518d6080015160405161046f929190610cec565b60405180910390a4505050505050505050565b600081815260026020526040902080546060919061049f90610ba2565b80601f01602080910402602001604051908101604052809291908181526020018280546104cb90610ba2565b80156105185780601f106104ed57610100808354040283529160200191610518565b820191906000526020600020905b8154815290600101906020018083116104fb57829003601f168201915b50505050509050919050565b60007f0437aae69c54cd2466509c2a8ff9665c8db4aeca454a7326b4d054709a5b07ea82600001518360200151846040015185606001518051906020012086608001518760a001516040516020016105bc97969594939291909687526001600160a01b0395861660208801529385166040870152919093166060850152608084019290925260a083019190915260c082015260e00190565b604051602081830303815290604052805190602001209050919050565b6105e1610814565b6001600160a01b0381166106375760405162461bcd60e51b815260206004820152601f60248201527f4352413a20506c65617365207573652061206e6f6e203020616464726573730060448201526064016101c8565b600180546001600160a01b0319166001600160a01b0392909216919091179055565b610661610814565b61066b600061086e565b565b610675610814565b6001600160a01b0381166106da5760405162461bcd60e51b815260206004820152602660248201527f4f776e61626c653a206e6577206f776e657220697320746865207a65726f206160448201526564647265737360d01b60648201526084016101c8565b6106e38161086e565b50565b6000806000835160411461073c5760405162461bcd60e51b815260206004820152601d60248201527f4352413a20496e76616c6964207369676e6174757265206c656e67746800000060448201526064016101c8565b50505060208101516040820151606090920151909260009190911a90565b60008060405180604001604052806002815260200161190160f01b8152509050600081888860405160200161079193929190610d0e565b60408051601f198184030181528282528051602091820120600080855291840180845281905260ff8a169284019290925260608301889052608083018790529092509060019060a0016020604051602081039080840390855afa1580156107fc573d6000803e3d6000fd5b5050604051601f1901519a9950505050505050505050565b6000546001600160a01b0316331461066b5760405162461bcd60e51b815260206004820181905260248201527f4f776e61626c653a2063616c6c6572206973206e6f7420746865206f776e657260448201526064016101c8565b600080546001600160a01b038381166001600160a01b0319831681178455604051919092169283917f8be0079c531659141344cd1fd0a4f28419497f9722a3daafe3b4186f6b6457e09190a35050565b634e487b7160e01b600052604160045260246000fd5b60405160c0810167ffffffffffffffff811182821017156108f7576108f76108be565b60405290565b604051601f8201601f1916810167ffffffffffffffff81118282101715610926576109266108be565b604052919050565b80356001600160a01b038116811461094557600080fd5b919050565b600060c0828403121561095c57600080fd5b6109646108d4565b905061096f8261092e565b8152602061097e81840161092e565b8183015261098e6040840161092e565b6040830152606083013567ffffffffffffffff808211156109ae57600080fd5b818501915085601f8301126109c257600080fd5b8135818111156109d4576109d46108be565b6109e6601f8201601f191685016108fd565b915080825286848285010111156109fc57600080fd5b80848401858401376000848284010152508060608501525050506080820135608082015260a082013560a082015292915050565b600080600060408486031215610a4557600080fd5b833567ffffffffffffffff80821115610a5d57600080fd5b610a698783880161094a565b94506020860135915080821115610a7f57600080fd5b818601915086601f830112610a9357600080fd5b813581811115610aa257600080fd5b876020828501011115610ab457600080fd5b6020830194508093505050509250925092565b600060208284031215610ad957600080fd5b5035919050565b60005b83811015610afb578181015183820152602001610ae3565b50506000910152565b60008151808452610b1c816020860160208601610ae0565b601f01601f19169290920160200192915050565b602081526000610b436020830184610b04565b9392505050565b600060208284031215610b5c57600080fd5b813567ffffffffffffffff811115610b7357600080fd5b610b7f8482850161094a565b949350505050565b600060208284031215610b9957600080fd5b610b438261092e565b600181811c90821680610bb657607f821691505b602082108103610bd657634e487b7160e01b600052602260045260246000fd5b50919050565b601f821115610c2657600081815260208120601f850160051c81016020861015610c035750805b601f850160051c820191505b81811015610c2257828155600101610c0f565b5050505b505050565b67ffffffffffffffff831115610c4357610c436108be565b610c5783610c518354610ba2565b83610bdc565b6000601f841160018114610c8b5760008515610c735750838201355b600019600387901b1c1916600186901b178355610ce5565b600083815260209020601f19861690835b82811015610cbc5786850135825560209485019460019092019101610c9c565b5086821015610cd95760001960f88860031b161c19848701351681555b505060018560011b0183555b5050505050565b604081526000610cff6040830185610b04565b90508260208301529392505050565b60008451610d20818460208901610ae0565b9190910192835250602082015260400191905056fea264697066735822122053e7d057c93891c7ea043b3c63eb0667d733ac7c32bdb10cc710374f84a5263564736f6c63430008110033",
    "linkReferences": {}
  },
  "methodIdentifiers": {
    "getDomainHash()": "83ebb771",
    "getSigner()": "7ac3c02f",
    "getStructHash((address,address,address,string,uint256,uint256))": "56bc5794",
    "hashSignature(bytes32)": "39d2b9f6",
    "owner()": "8da5cb5b",
    "renounceOwnership()": "715018a6",
    "setSigner(address)": "6c19e783",
    "transferOwnership(address)": "f2fde38b",
    "verifyCounterpartyRisk((address,address,address,string,uint256,uint256),bytes)": "1d23ead1"
  },
  "id": 9
}